{
  "_format": "hh-sol-artifact-1",
  "contractName": "NFTMarketplace",
  "sourceName": "src/backend/contracts/NFTMarketplace.sol",
  "abi": [
    {
      "inputs": [],
      "stateMutability": "nonpayable",
      "type": "constructor"
    },
    {
      "anonymous": false,
      "inputs": [
        {
          "indexed": true,
          "internalType": "address",
          "name": "owner",
          "type": "address"
        },
        {
          "indexed": true,
          "internalType": "address",
          "name": "approved",
          "type": "address"
        },
        {
          "indexed": true,
          "internalType": "uint256",
          "name": "tokenId",
          "type": "uint256"
        }
      ],
      "name": "Approval",
      "type": "event"
    },
    {
      "anonymous": false,
      "inputs": [
        {
          "indexed": true,
          "internalType": "address",
          "name": "owner",
          "type": "address"
        },
        {
          "indexed": true,
          "internalType": "address",
          "name": "operator",
          "type": "address"
        },
        {
          "indexed": false,
          "internalType": "bool",
          "name": "approved",
          "type": "bool"
        }
      ],
      "name": "ApprovalForAll",
      "type": "event"
    },
    {
      "anonymous": false,
      "inputs": [
        {
          "indexed": true,
          "internalType": "uint256",
          "name": "tokenId",
          "type": "uint256"
        },
        {
          "indexed": false,
          "internalType": "address",
          "name": "seller",
          "type": "address"
        },
        {
          "indexed": false,
          "internalType": "address",
          "name": "owner",
          "type": "address"
        },
        {
          "indexed": false,
          "internalType": "uint256",
          "name": "price",
          "type": "uint256"
        },
        {
          "indexed": false,
          "internalType": "bool",
          "name": "sold",
          "type": "bool"
        }
      ],
      "name": "MarketItemCreated",
      "type": "event"
    },
    {
      "anonymous": false,
      "inputs": [
        {
          "indexed": true,
          "internalType": "address",
          "name": "from",
          "type": "address"
        },
        {
          "indexed": true,
          "internalType": "address",
          "name": "to",
          "type": "address"
        },
        {
          "indexed": true,
          "internalType": "uint256",
          "name": "tokenId",
          "type": "uint256"
        }
      ],
      "name": "Transfer",
      "type": "event"
    },
    {
      "inputs": [
        {
          "internalType": "address",
          "name": "to",
          "type": "address"
        },
        {
          "internalType": "uint256",
          "name": "tokenId",
          "type": "uint256"
        }
      ],
      "name": "approve",
      "outputs": [],
      "stateMutability": "nonpayable",
      "type": "function"
    },
    {
      "inputs": [
        {
          "internalType": "address",
          "name": "owner",
          "type": "address"
        }
      ],
      "name": "balanceOf",
      "outputs": [
        {
          "internalType": "uint256",
          "name": "",
          "type": "uint256"
        }
      ],
      "stateMutability": "view",
      "type": "function"
    },
    {
      "inputs": [
        {
          "internalType": "uint256",
          "name": "tokenId",
          "type": "uint256"
        }
      ],
      "name": "createMarketSale",
      "outputs": [],
      "stateMutability": "payable",
      "type": "function"
    },
    {
      "inputs": [
        {
          "internalType": "string",
          "name": "tokenURI",
          "type": "string"
        },
        {
          "internalType": "uint256",
          "name": "price",
          "type": "uint256"
        }
      ],
      "name": "createToken",
      "outputs": [
        {
          "internalType": "uint256",
          "name": "",
          "type": "uint256"
        }
      ],
      "stateMutability": "payable",
      "type": "function"
    },
    {
      "inputs": [],
      "name": "fetchItemsListed",
      "outputs": [
        {
          "components": [
            {
              "internalType": "uint256",
              "name": "tokenId",
              "type": "uint256"
            },
            {
              "internalType": "address payable",
              "name": "seller",
              "type": "address"
            },
            {
              "internalType": "address payable",
              "name": "owner",
              "type": "address"
            },
            {
              "internalType": "uint256",
              "name": "price",
              "type": "uint256"
            },
            {
              "internalType": "bool",
              "name": "sold",
              "type": "bool"
            }
          ],
          "internalType": "struct NFTMarketplace.MarketItem[]",
          "name": "",
          "type": "tuple[]"
        }
      ],
      "stateMutability": "view",
      "type": "function"
    },
    {
      "inputs": [],
      "name": "fetchMarketItems",
      "outputs": [
        {
          "components": [
            {
              "internalType": "uint256",
              "name": "tokenId",
              "type": "uint256"
            },
            {
              "internalType": "address payable",
              "name": "seller",
              "type": "address"
            },
            {
              "internalType": "address payable",
              "name": "owner",
              "type": "address"
            },
            {
              "internalType": "uint256",
              "name": "price",
              "type": "uint256"
            },
            {
              "internalType": "bool",
              "name": "sold",
              "type": "bool"
            }
          ],
          "internalType": "struct NFTMarketplace.MarketItem[]",
          "name": "",
          "type": "tuple[]"
        }
      ],
      "stateMutability": "view",
      "type": "function"
    },
    {
      "inputs": [
        {
          "internalType": "uint256",
          "name": "tokenId",
          "type": "uint256"
        }
      ],
      "name": "getApproved",
      "outputs": [
        {
          "internalType": "address",
          "name": "",
          "type": "address"
        }
      ],
      "stateMutability": "view",
      "type": "function"
    },
    {
      "inputs": [],
      "name": "getListingPrice",
      "outputs": [
        {
          "internalType": "uint256",
          "name": "",
          "type": "uint256"
        }
      ],
      "stateMutability": "view",
      "type": "function"
    },
    {
      "inputs": [
        {
          "internalType": "address",
          "name": "owner",
          "type": "address"
        },
        {
          "internalType": "address",
          "name": "operator",
          "type": "address"
        }
      ],
      "name": "isApprovedForAll",
      "outputs": [
        {
          "internalType": "bool",
          "name": "",
          "type": "bool"
        }
      ],
      "stateMutability": "view",
      "type": "function"
    },
    {
      "inputs": [],
      "name": "name",
      "outputs": [
        {
          "internalType": "string",
          "name": "",
          "type": "string"
        }
      ],
      "stateMutability": "view",
      "type": "function"
    },
    {
      "inputs": [
        {
          "internalType": "uint256",
          "name": "tokenId",
          "type": "uint256"
        }
      ],
      "name": "ownerOf",
      "outputs": [
        {
          "internalType": "address",
          "name": "",
          "type": "address"
        }
      ],
      "stateMutability": "view",
      "type": "function"
    },
    {
      "inputs": [
        {
          "internalType": "uint256",
          "name": "tokenId",
          "type": "uint256"
        },
        {
          "internalType": "uint256",
          "name": "price",
          "type": "uint256"
        }
      ],
      "name": "resellToken",
      "outputs": [],
      "stateMutability": "payable",
      "type": "function"
    },
    {
      "inputs": [
        {
          "internalType": "address",
          "name": "from",
          "type": "address"
        },
        {
          "internalType": "address",
          "name": "to",
          "type": "address"
        },
        {
          "internalType": "uint256",
          "name": "tokenId",
          "type": "uint256"
        }
      ],
      "name": "safeTransferFrom",
      "outputs": [],
      "stateMutability": "nonpayable",
      "type": "function"
    },
    {
      "inputs": [
        {
          "internalType": "address",
          "name": "from",
          "type": "address"
        },
        {
          "internalType": "address",
          "name": "to",
          "type": "address"
        },
        {
          "internalType": "uint256",
          "name": "tokenId",
          "type": "uint256"
        },
        {
          "internalType": "bytes",
          "name": "_data",
          "type": "bytes"
        }
      ],
      "name": "safeTransferFrom",
      "outputs": [],
      "stateMutability": "nonpayable",
      "type": "function"
    },
    {
      "inputs": [
        {
          "internalType": "address",
          "name": "operator",
          "type": "address"
        },
        {
          "internalType": "bool",
          "name": "approved",
          "type": "bool"
        }
      ],
      "name": "setApprovalForAll",
      "outputs": [],
      "stateMutability": "nonpayable",
      "type": "function"
    },
    {
      "inputs": [
        {
          "internalType": "bytes4",
          "name": "interfaceId",
          "type": "bytes4"
        }
      ],
      "name": "supportsInterface",
      "outputs": [
        {
          "internalType": "bool",
          "name": "",
          "type": "bool"
        }
      ],
      "stateMutability": "view",
      "type": "function"
    },
    {
      "inputs": [],
      "name": "symbol",
      "outputs": [
        {
          "internalType": "string",
          "name": "",
          "type": "string"
        }
      ],
      "stateMutability": "view",
      "type": "function"
    },
    {
      "inputs": [
        {
          "internalType": "uint256",
          "name": "tokenId",
          "type": "uint256"
        }
      ],
      "name": "tokenURI",
      "outputs": [
        {
          "internalType": "string",
          "name": "",
          "type": "string"
        }
      ],
      "stateMutability": "view",
      "type": "function"
    },
    {
      "inputs": [
        {
          "internalType": "address",
          "name": "from",
          "type": "address"
        },
        {
          "internalType": "address",
          "name": "to",
          "type": "address"
        },
        {
          "internalType": "uint256",
          "name": "tokenId",
          "type": "uint256"
        }
      ],
      "name": "transferFrom",
      "outputs": [],
      "stateMutability": "nonpayable",
      "type": "function"
    },
    {
      "inputs": [
        {
          "internalType": "uint256",
          "name": "_listingPrice",
          "type": "uint256"
        }
      ],
      "name": "updateListingPrice",
      "outputs": [],
      "stateMutability": "payable",
      "type": "function"
    }
  ],
  "bytecode": "0x60806040526658d15e176280006009553480156200001c57600080fd5b506040518060400160405280601081526020017f4d657461766572736520546f6b656e73000000000000000000000000000000008152506040518060400160405280600481526020017f4d455454000000000000000000000000000000000000000000000000000000008152508160009080519060200190620000a192919062000104565b508060019080519060200190620000ba92919062000104565b50505033600a60006101000a81548173ffffffffffffffffffffffffffffffffffffffff021916908373ffffffffffffffffffffffffffffffffffffffff16021790555062000219565b8280546200011290620001b4565b90600052602060002090601f01602090048101928262000136576000855562000182565b82601f106200015157805160ff191683800117855562000182565b8280016001018555821562000182579182015b828111156200018157825182559160200191906001019062000164565b5b50905062000191919062000195565b5090565b5b80821115620001b057600081600090555060010162000196565b5090565b60006002820490506001821680620001cd57607f821691505b60208210811415620001e457620001e3620001ea565b5b50919050565b7f4e487b7100000000000000000000000000000000000000000000000000000000600052602260045260246000fd5b613ff280620002296000396000f3fe60806040526004361061011f5760003560e01c806370a08231116100a0578063b88d4fde11610064578063b88d4fde146103df578063be9af53614610408578063c87b56dd14610424578063e219fc7514610461578063e985e9c51461047d5761011f565b806370a082311461030257806372b3b6201461033f57806395d89b411461036f578063a22cb4651461039a578063ae677aa3146103c35761011f565b806312e85585116100e757806312e855851461021d57806323b872dd1461024857806342842e0e1461027157806345f8fa801461029a5780636352211e146102c55761011f565b806301ffc9a71461012457806306fdde0314610161578063081812fc1461018c578063095ea7b3146101c95780630f08efe0146101f2575b600080fd5b34801561013057600080fd5b5061014b60048036038101906101469190612b32565b6104ba565b604051610158919061320c565b60405180910390f35b34801561016d57600080fd5b5061017661059c565b6040516101839190613227565b60405180910390f35b34801561019857600080fd5b506101b360048036038101906101ae9190612bd8565b61062e565b6040516101c0919061313e565b60405180910390f35b3480156101d557600080fd5b506101f060048036038101906101eb9190612af6565b6106b3565b005b3480156101fe57600080fd5b506102076107cb565b60405161021491906131ea565b60405180910390f35b34801561022957600080fd5b50610232610a80565b60405161023f9190613509565b60405180910390f35b34801561025457600080fd5b5061026f600480360381019061026a91906129f0565b610a8a565b005b34801561027d57600080fd5b50610298600480360381019061029391906129f0565b610aea565b005b3480156102a657600080fd5b506102af610b0a565b6040516102bc91906131ea565b60405180910390f35b3480156102d157600080fd5b506102ec60048036038101906102e79190612bd8565b610e44565b6040516102f9919061313e565b60405180910390f35b34801561030e57600080fd5b506103296004803603810190610324919061298b565b610ef6565b6040516103369190613509565b60405180910390f35b61035960048036038101906103549190612b84565b610fae565b6040516103669190613509565b60405180910390f35b34801561037b57600080fd5b50610384610ff0565b6040516103919190613227565b60405180910390f35b3480156103a657600080fd5b506103c160048036038101906103bc9190612aba565b611082565b005b6103dd60048036038101906103d89190612bd8565b611098565b005b3480156103eb57600080fd5b5061040660048036038101906104019190612a3f565b611132565b005b610422600480360381019061041d9190612bd8565b611194565b005b34801561043057600080fd5b5061044b60048036038101906104469190612bd8565b6113d2565b6040516104589190613227565b60405180910390f35b61047b60048036038101906104769190612c01565b611524565b005b34801561048957600080fd5b506104a4600480360381019061049f91906129b4565b611719565b6040516104b1919061320c565b60405180910390f35b60007f80ac58cd000000000000000000000000000000000000000000000000000000007bffffffffffffffffffffffffffffffffffffffffffffffffffffffff1916827bffffffffffffffffffffffffffffffffffffffffffffffffffffffff1916148061058557507f5b5e139f000000000000000000000000000000000000000000000000000000007bffffffffffffffffffffffffffffffffffffffffffffffffffffffff1916827bffffffffffffffffffffffffffffffffffffffffffffffffffffffff1916145b806105955750610594826117ad565b5b9050919050565b6060600080546105ab906137aa565b80601f01602080910402602001604051908101604052809291908181526020018280546105d7906137aa565b80156106245780601f106105f957610100808354040283529160200191610624565b820191906000526020600020905b81548152906001019060200180831161060757829003601f168201915b5050505050905090565b600061063982611817565b610678576040517f08c379a000000000000000000000000000000000000000000000000000000000815260040161066f90613429565b60405180910390fd5b6004600083815260200190815260200160002060009054906101000a900473ffffffffffffffffffffffffffffffffffffffff169050919050565b60006106be82610e44565b90508073ffffffffffffffffffffffffffffffffffffffff168373ffffffffffffffffffffffffffffffffffffffff16141561072f576040517f08c379a000000000000000000000000000000000000000000000000000000000815260040161072690613469565b60405180910390fd5b8073ffffffffffffffffffffffffffffffffffffffff1661074e611883565b73ffffffffffffffffffffffffffffffffffffffff16148061077d575061077c81610777611883565b611719565b5b6107bc576040517f08c379a00000000000000000000000000000000000000000000000000000000081526004016107b390613329565b60405180910390fd5b6107c6838361188b565b505050565b606060006107d96007611944565b905060006107e76008611944565b6107f16007611944565b6107fb91906136ae565b90506000808267ffffffffffffffff811115610840577f4e487b7100000000000000000000000000000000000000000000000000000000600052604160045260246000fd5b60405190808252806020026020018201604052801561087957816020015b610866612752565b81526020019060019003908161085e5790505b50905060005b84811015610a75573073ffffffffffffffffffffffffffffffffffffffff16600b60006001846108af9190613627565b815260200190815260200160002060020160009054906101000a900473ffffffffffffffffffffffffffffffffffffffff1673ffffffffffffffffffffffffffffffffffffffff161415610a6257600060018261090c9190613627565b90506000600b60008381526020019081526020016000209050806040518060a0016040529081600082015481526020016001820160009054906101000a900473ffffffffffffffffffffffffffffffffffffffff1673ffffffffffffffffffffffffffffffffffffffff1673ffffffffffffffffffffffffffffffffffffffff1681526020016002820160009054906101000a900473ffffffffffffffffffffffffffffffffffffffff1673ffffffffffffffffffffffffffffffffffffffff1673ffffffffffffffffffffffffffffffffffffffff168152602001600382015481526020016004820160009054906101000a900460ff161515151581525050848681518110610a45577f4e487b7100000000000000000000000000000000000000000000000000000000600052603260045260246000fd5b6020026020010181905250600185610a5d9190613627565b945050505b8080610a6d9061380d565b91505061087f565b508094505050505090565b6000600954905090565b610a9b610a95611883565b82611952565b610ada576040517f08c379a0000000000000000000000000000000000000000000000000000000008152600401610ad1906134a9565b60405180910390fd5b610ae5838383611a30565b505050565b610b0583838360405180602001604052806000815250611132565b505050565b60606000610b186007611944565b905060008060005b83811015610bc1573373ffffffffffffffffffffffffffffffffffffffff16600b6000600184610b509190613627565b815260200190815260200160002060010160009054906101000a900473ffffffffffffffffffffffffffffffffffffffff1673ffffffffffffffffffffffffffffffffffffffff161415610bae57600183610bab9190613627565b92505b8080610bb99061380d565b915050610b20565b5060008267ffffffffffffffff811115610c04577f4e487b7100000000000000000000000000000000000000000000000000000000600052604160045260246000fd5b604051908082528060200260200182016040528015610c3d57816020015b610c2a612752565b815260200190600190039081610c225790505b50905060005b84811015610e39573373ffffffffffffffffffffffffffffffffffffffff16600b6000600184610c739190613627565b815260200190815260200160002060010160009054906101000a900473ffffffffffffffffffffffffffffffffffffffff1673ffffffffffffffffffffffffffffffffffffffff161415610e26576000600182610cd09190613627565b90506000600b60008381526020019081526020016000209050806040518060a0016040529081600082015481526020016001820160009054906101000a900473ffffffffffffffffffffffffffffffffffffffff1673ffffffffffffffffffffffffffffffffffffffff1673ffffffffffffffffffffffffffffffffffffffff1681526020016002820160009054906101000a900473ffffffffffffffffffffffffffffffffffffffff1673ffffffffffffffffffffffffffffffffffffffff1673ffffffffffffffffffffffffffffffffffffffff168152602001600382015481526020016004820160009054906101000a900460ff161515151581525050848681518110610e09577f4e487b7100000000000000000000000000000000000000000000000000000000600052603260045260246000fd5b6020026020010181905250600185610e219190613627565b945050505b8080610e319061380d565b915050610c43565b508094505050505090565b6000806002600084815260200190815260200160002060009054906101000a900473ffffffffffffffffffffffffffffffffffffffff169050600073ffffffffffffffffffffffffffffffffffffffff168173ffffffffffffffffffffffffffffffffffffffff161415610eed576040517f08c379a0000000000000000000000000000000000000000000000000000000008152600401610ee490613369565b60405180910390fd5b80915050919050565b60008073ffffffffffffffffffffffffffffffffffffffff168273ffffffffffffffffffffffffffffffffffffffff161415610f67576040517f08c379a0000000000000000000000000000000000000000000000000000000008152600401610f5e90613349565b60405180910390fd5b600360008373ffffffffffffffffffffffffffffffffffffffff1673ffffffffffffffffffffffffffffffffffffffff168152602001908152602001600020549050919050565b6000610fba6007611c97565b6000610fc66007611944565b9050610fd23382611cad565b610fdc8185611e87565b610fe68184611efb565b8091505092915050565b606060018054610fff906137aa565b80601f016020809104026020016040519081016040528092919081815260200182805461102b906137aa565b80156110785780601f1061104d57610100808354040283529160200191611078565b820191906000526020600020905b81548152906001019060200180831161105b57829003601f168201915b5050505050905090565b61109461108d611883565b83836120fe565b5050565b3373ffffffffffffffffffffffffffffffffffffffff16600a60009054906101000a900473ffffffffffffffffffffffffffffffffffffffff1673ffffffffffffffffffffffffffffffffffffffff1614611128576040517f08c379a000000000000000000000000000000000000000000000000000000000815260040161111f906134c9565b60405180910390fd5b8060098190555050565b61114361113d611883565b83611952565b611182576040517f08c379a0000000000000000000000000000000000000000000000000000000008152600401611179906134a9565b60405180910390fd5b61118e8484848461226b565b50505050565b6000600b60008381526020019081526020016000206003015490506000600b600084815260200190815260200160002060010160009054906101000a900473ffffffffffffffffffffffffffffffffffffffff16905081341461122c576040517f08c379a0000000000000000000000000000000000000000000000000000000008152600401611223906133a9565b60405180910390fd5b33600b600085815260200190815260200160002060020160006101000a81548173ffffffffffffffffffffffffffffffffffffffff021916908373ffffffffffffffffffffffffffffffffffffffff1602179055506001600b600085815260200190815260200160002060040160006101000a81548160ff0219169083151502179055506000600b600085815260200190815260200160002060010160006101000a81548173ffffffffffffffffffffffffffffffffffffffff021916908373ffffffffffffffffffffffffffffffffffffffff1602179055506113106008611c97565b61131b303385611a30565b600a60009054906101000a900473ffffffffffffffffffffffffffffffffffffffff1673ffffffffffffffffffffffffffffffffffffffff166108fc6009549081150290604051600060405180830381858888f19350505050158015611385573d6000803e3d6000fd5b508073ffffffffffffffffffffffffffffffffffffffff166108fc349081150290604051600060405180830381858888f193505050501580156113cc573d6000803e3d6000fd5b50505050565b60606113dd82611817565b61141c576040517f08c379a0000000000000000000000000000000000000000000000000000000008152600401611413906133e9565b60405180910390fd5b600060066000848152602001908152602001600020805461143c906137aa565b80601f0160208091040260200160405190810160405280929190818152602001828054611468906137aa565b80156114b55780601f1061148a576101008083540402835291602001916114b5565b820191906000526020600020905b81548152906001019060200180831161149857829003601f168201915b5050505050905060006114c66122c7565b90506000815114156114dc57819250505061151f565b6000825111156115115780826040516020016114f992919061311a565b6040516020818303038152906040529250505061151f565b61151a846122de565b925050505b919050565b3373ffffffffffffffffffffffffffffffffffffffff16600b600084815260200190815260200160002060020160009054906101000a900473ffffffffffffffffffffffffffffffffffffffff1673ffffffffffffffffffffffffffffffffffffffff16146115c8576040517f08c379a00000000000000000000000000000000000000000000000000000000081526004016115bf90613409565b60405180910390fd5b600954341461160c576040517f08c379a000000000000000000000000000000000000000000000000000000000815260040161160390613489565b60405180910390fd5b6000600b600084815260200190815260200160002060040160006101000a81548160ff02191690831515021790555080600b60008481526020019081526020016000206003018190555033600b600084815260200190815260200160002060010160006101000a81548173ffffffffffffffffffffffffffffffffffffffff021916908373ffffffffffffffffffffffffffffffffffffffff16021790555030600b600084815260200190815260200160002060020160006101000a81548173ffffffffffffffffffffffffffffffffffffffff021916908373ffffffffffffffffffffffffffffffffffffffff16021790555061170a6008612385565b611715333084611a30565b5050565b6000600560008473ffffffffffffffffffffffffffffffffffffffff1673ffffffffffffffffffffffffffffffffffffffff16815260200190815260200160002060008373ffffffffffffffffffffffffffffffffffffffff1673ffffffffffffffffffffffffffffffffffffffff16815260200190815260200160002060009054906101000a900460ff16905092915050565b60007f01ffc9a7000000000000000000000000000000000000000000000000000000007bffffffffffffffffffffffffffffffffffffffffffffffffffffffff1916827bffffffffffffffffffffffffffffffffffffffffffffffffffffffff1916149050919050565b60008073ffffffffffffffffffffffffffffffffffffffff166002600084815260200190815260200160002060009054906101000a900473ffffffffffffffffffffffffffffffffffffffff1673ffffffffffffffffffffffffffffffffffffffff1614159050919050565b600033905090565b816004600083815260200190815260200160002060006101000a81548173ffffffffffffffffffffffffffffffffffffffff021916908373ffffffffffffffffffffffffffffffffffffffff160217905550808273ffffffffffffffffffffffffffffffffffffffff166118fe83610e44565b73ffffffffffffffffffffffffffffffffffffffff167f8c5be1e5ebec7d5bd14f71427d1e84f3dd0314c0f7b2291e5b200ac8c7c3b92560405160405180910390a45050565b600081600001549050919050565b600061195d82611817565b61199c576040517f08c379a000000000000000000000000000000000000000000000000000000000815260040161199390613309565b60405180910390fd5b60006119a783610e44565b90508073ffffffffffffffffffffffffffffffffffffffff168473ffffffffffffffffffffffffffffffffffffffff1614806119e957506119e88185611719565b5b80611a2757508373ffffffffffffffffffffffffffffffffffffffff16611a0f8461062e565b73ffffffffffffffffffffffffffffffffffffffff16145b91505092915050565b8273ffffffffffffffffffffffffffffffffffffffff16611a5082610e44565b73ffffffffffffffffffffffffffffffffffffffff1614611aa6576040517f08c379a0000000000000000000000000000000000000000000000000000000008152600401611a9d90613289565b60405180910390fd5b600073ffffffffffffffffffffffffffffffffffffffff168273ffffffffffffffffffffffffffffffffffffffff161415611b16576040517f08c379a0000000000000000000000000000000000000000000000000000000008152600401611b0d906132c9565b60405180910390fd5b611b218383836123e1565b611b2c60008261188b565b6001600360008573ffffffffffffffffffffffffffffffffffffffff1673ffffffffffffffffffffffffffffffffffffffff1681526020019081526020016000206000828254611b7c91906136ae565b925050819055506001600360008473ffffffffffffffffffffffffffffffffffffffff1673ffffffffffffffffffffffffffffffffffffffff1681526020019081526020016000206000828254611bd39190613627565b92505081905550816002600083815260200190815260200160002060006101000a81548173ffffffffffffffffffffffffffffffffffffffff021916908373ffffffffffffffffffffffffffffffffffffffff160217905550808273ffffffffffffffffffffffffffffffffffffffff168473ffffffffffffffffffffffffffffffffffffffff167fddf252ad1be2c89b69c2b068fc378daa952ba7f163c4a11628f55a4df523b3ef60405160405180910390a4611c928383836123e6565b505050565b6001816000016000828254019250508190555050565b600073ffffffffffffffffffffffffffffffffffffffff168273ffffffffffffffffffffffffffffffffffffffff161415611d1d576040517f08c379a0000000000000000000000000000000000000000000000000000000008152600401611d14906133c9565b60405180910390fd5b611d2681611817565b15611d66576040517f08c379a0000000000000000000000000000000000000000000000000000000008152600401611d5d906132a9565b60405180910390fd5b611d72600083836123e1565b6001600360008473ffffffffffffffffffffffffffffffffffffffff1673ffffffffffffffffffffffffffffffffffffffff1681526020019081526020016000206000828254611dc29190613627565b92505081905550816002600083815260200190815260200160002060006101000a81548173ffffffffffffffffffffffffffffffffffffffff021916908373ffffffffffffffffffffffffffffffffffffffff160217905550808273ffffffffffffffffffffffffffffffffffffffff16600073ffffffffffffffffffffffffffffffffffffffff167fddf252ad1be2c89b69c2b068fc378daa952ba7f163c4a11628f55a4df523b3ef60405160405180910390a4611e83600083836123e6565b5050565b611e9082611817565b611ecf576040517f08c379a0000000000000000000000000000000000000000000000000000000008152600401611ec690613389565b60405180910390fd5b80600660008481526020019081526020016000209080519060200190611ef69291906127af565b505050565b60008111611f3e576040517f08c379a0000000000000000000000000000000000000000000000000000000008152600401611f35906134e9565b60405180910390fd5b6009543414611f82576040517f08c379a0000000000000000000000000000000000000000000000000000000008152600401611f7990613489565b60405180910390fd5b6040518060a001604052808381526020013373ffffffffffffffffffffffffffffffffffffffff1681526020013073ffffffffffffffffffffffffffffffffffffffff16815260200182815260200160001515815250600b60008481526020019081526020016000206000820151816000015560208201518160010160006101000a81548173ffffffffffffffffffffffffffffffffffffffff021916908373ffffffffffffffffffffffffffffffffffffffff16021790555060408201518160020160006101000a81548173ffffffffffffffffffffffffffffffffffffffff021916908373ffffffffffffffffffffffffffffffffffffffff1602179055506060820151816003015560808201518160040160006101000a81548160ff0219169083151502179055509050506120bb333084611a30565b817fb640004f1d14576d0c209e240cad0410e0d8c0c33a09375861fbadae2588a98d33308460006040516120f29493929190613159565b60405180910390a25050565b8173ffffffffffffffffffffffffffffffffffffffff168373ffffffffffffffffffffffffffffffffffffffff16141561216d576040517f08c379a0000000000000000000000000000000000000000000000000000000008152600401612164906132e9565b60405180910390fd5b80600560008573ffffffffffffffffffffffffffffffffffffffff1673ffffffffffffffffffffffffffffffffffffffff16815260200190815260200160002060008473ffffffffffffffffffffffffffffffffffffffff1673ffffffffffffffffffffffffffffffffffffffff16815260200190815260200160002060006101000a81548160ff0219169083151502179055508173ffffffffffffffffffffffffffffffffffffffff168373ffffffffffffffffffffffffffffffffffffffff167f17307eab39ab6107e8899845ad3d59bd9653f200f220920489ca2b5937696c318360405161225e919061320c565b60405180910390a3505050565b612276848484611a30565b612282848484846123eb565b6122c1576040517f08c379a00000000000000000000000000000000000000000000000000000000081526004016122b890613269565b60405180910390fd5b50505050565b606060405180602001604052806000815250905090565b60606122e982611817565b612328576040517f08c379a000000000000000000000000000000000000000000000000000000000815260040161231f90613449565b60405180910390fd5b60006123326122c7565b90506000815111612352576040518060200160405280600081525061237d565b8061235c84612582565b60405160200161236d92919061311a565b6040516020818303038152906040525b915050919050565b600081600001549050600081116123d1576040517f08c379a00000000000000000000000000000000000000000000000000000000081526004016123c890613249565b60405180910390fd5b6001810382600001819055505050565b505050565b505050565b600061240c8473ffffffffffffffffffffffffffffffffffffffff1661272f565b15612575578373ffffffffffffffffffffffffffffffffffffffff1663150b7a02612435611883565b8786866040518563ffffffff1660e01b8152600401612457949392919061319e565b602060405180830381600087803b15801561247157600080fd5b505af19250505080156124a257506040513d601f19601f8201168201806040525081019061249f9190612b5b565b60015b612525573d80600081146124d2576040519150601f19603f3d011682016040523d82523d6000602084013e6124d7565b606091505b5060008151141561251d576040517f08c379a000000000000000000000000000000000000000000000000000000000815260040161251490613269565b60405180910390fd5b805181602001fd5b63150b7a0260e01b7bffffffffffffffffffffffffffffffffffffffffffffffffffffffff1916817bffffffffffffffffffffffffffffffffffffffffffffffffffffffff19161491505061257a565b600190505b949350505050565b606060008214156125ca576040518060400160405280600181526020017f3000000000000000000000000000000000000000000000000000000000000000815250905061272a565b600082905060005b600082146125fc5780806125e59061380d565b915050600a826125f5919061367d565b91506125d2565b60008167ffffffffffffffff81111561263e577f4e487b7100000000000000000000000000000000000000000000000000000000600052604160045260246000fd5b6040519080825280601f01601f1916602001820160405280156126705781602001600182028036833780820191505090505b5090505b600085146127235760018261268991906136ae565b9150600a856126989190613856565b60306126a49190613627565b60f81b8183815181106126e0577f4e487b7100000000000000000000000000000000000000000000000000000000600052603260045260246000fd5b60200101907effffffffffffffffffffffffffffffffffffffffffffffffffffffffffffff1916908160001a905350600a8561271c919061367d565b9450612674565b8093505050505b919050565b6000808273ffffffffffffffffffffffffffffffffffffffff163b119050919050565b6040518060a0016040528060008152602001600073ffffffffffffffffffffffffffffffffffffffff168152602001600073ffffffffffffffffffffffffffffffffffffffff168152602001600081526020016000151581525090565b8280546127bb906137aa565b90600052602060002090601f0160209004810192826127dd5760008555612824565b82601f106127f657805160ff1916838001178555612824565b82800160010185558215612824579182015b82811115612823578251825591602001919060010190612808565b5b5090506128319190612835565b5090565b5b8082111561284e576000816000905550600101612836565b5090565b600061286561286084613549565b613524565b90508281526020810184848401111561287d57600080fd5b612888848285613768565b509392505050565b60006128a361289e8461357a565b613524565b9050828152602081018484840111156128bb57600080fd5b6128c6848285613768565b509392505050565b6000813590506128dd81613f60565b92915050565b6000813590506128f281613f77565b92915050565b60008135905061290781613f8e565b92915050565b60008151905061291c81613f8e565b92915050565b600082601f83011261293357600080fd5b8135612943848260208601612852565b91505092915050565b600082601f83011261295d57600080fd5b813561296d848260208601612890565b91505092915050565b60008135905061298581613fa5565b92915050565b60006020828403121561299d57600080fd5b60006129ab848285016128ce565b91505092915050565b600080604083850312156129c757600080fd5b60006129d5858286016128ce565b92505060206129e6858286016128ce565b9150509250929050565b600080600060608486031215612a0557600080fd5b6000612a13868287016128ce565b9350506020612a24868287016128ce565b9250506040612a3586828701612976565b9150509250925092565b60008060008060808587031215612a5557600080fd5b6000612a63878288016128ce565b9450506020612a74878288016128ce565b9350506040612a8587828801612976565b925050606085013567ffffffffffffffff811115612aa257600080fd5b612aae87828801612922565b91505092959194509250565b60008060408385031215612acd57600080fd5b6000612adb858286016128ce565b9250506020612aec858286016128e3565b9150509250929050565b60008060408385031215612b0957600080fd5b6000612b17858286016128ce565b9250506020612b2885828601612976565b9150509250929050565b600060208284031215612b4457600080fd5b6000612b52848285016128f8565b91505092915050565b600060208284031215612b6d57600080fd5b6000612b7b8482850161290d565b91505092915050565b60008060408385031215612b9757600080fd5b600083013567ffffffffffffffff811115612bb157600080fd5b612bbd8582860161294c565b9250506020612bce85828601612976565b9150509250929050565b600060208284031215612bea57600080fd5b6000612bf884828501612976565b91505092915050565b60008060408385031215612c1457600080fd5b6000612c2285828601612976565b9250506020612c3385828601612976565b9150509250929050565b6000612c498383613094565b60a08301905092915050565b612c5e816136f4565b82525050565b612c6d816136e2565b82525050565b6000612c7e826135bb565b612c8881856135e9565b9350612c93836135ab565b8060005b83811015612cc4578151612cab8882612c3d565b9750612cb6836135dc565b925050600181019050612c97565b5085935050505092915050565b612cda81613706565b82525050565b612ce981613706565b82525050565b6000612cfa826135c6565b612d0481856135fa565b9350612d14818560208601613777565b612d1d81613943565b840191505092915050565b6000612d33826135d1565b612d3d818561360b565b9350612d4d818560208601613777565b612d5681613943565b840191505092915050565b6000612d6c826135d1565b612d76818561361c565b9350612d86818560208601613777565b80840191505092915050565b6000612d9f601b8361360b565b9150612daa82613954565b602082019050919050565b6000612dc260328361360b565b9150612dcd8261397d565b604082019050919050565b6000612de560258361360b565b9150612df0826139cc565b604082019050919050565b6000612e08601c8361360b565b9150612e1382613a1b565b602082019050919050565b6000612e2b60248361360b565b9150612e3682613a44565b604082019050919050565b6000612e4e60198361360b565b9150612e5982613a93565b602082019050919050565b6000612e71602c8361360b565b9150612e7c82613abc565b604082019050919050565b6000612e9460388361360b565b9150612e9f82613b0b565b604082019050919050565b6000612eb7602a8361360b565b9150612ec282613b5a565b604082019050919050565b6000612eda60298361360b565b9150612ee582613ba9565b604082019050919050565b6000612efd602e8361360b565b9150612f0882613bf8565b604082019050919050565b6000612f2060408361360b565b9150612f2b82613c47565b604082019050919050565b6000612f4360208361360b565b9150612f4e82613c96565b602082019050919050565b6000612f6660318361360b565b9150612f7182613cbf565b604082019050919050565b6000612f89602a8361360b565b9150612f9482613d0e565b604082019050919050565b6000612fac602c8361360b565b9150612fb782613d5d565b604082019050919050565b6000612fcf602f8361360b565b9150612fda82613dac565b604082019050919050565b6000612ff260218361360b565b9150612ffd82613dfb565b604082019050919050565b600061301560248361360b565b915061302082613e4a565b604082019050919050565b600061303860318361360b565b915061304382613e99565b604082019050919050565b600061305b60308361360b565b915061306682613ee8565b604082019050919050565b600061307e601c8361360b565b915061308982613f37565b602082019050919050565b60a0820160008201516130aa60008501826130fc565b5060208201516130bd6020850182612c55565b5060408201516130d06040850182612c55565b5060608201516130e360608501826130fc565b5060808201516130f66080850182612cd1565b50505050565b6131058161375e565b82525050565b6131148161375e565b82525050565b60006131268285612d61565b91506131328284612d61565b91508190509392505050565b60006020820190506131536000830184612c64565b92915050565b600060808201905061316e6000830187612c64565b61317b6020830186612c64565b613188604083018561310b565b6131956060830184612ce0565b95945050505050565b60006080820190506131b36000830187612c64565b6131c06020830186612c64565b6131cd604083018561310b565b81810360608301526131df8184612cef565b905095945050505050565b600060208201905081810360008301526132048184612c73565b905092915050565b60006020820190506132216000830184612ce0565b92915050565b600060208201905081810360008301526132418184612d28565b905092915050565b6000602082019050818103600083015261326281612d92565b9050919050565b6000602082019050818103600083015261328281612db5565b9050919050565b600060208201905081810360008301526132a281612dd8565b9050919050565b600060208201905081810360008301526132c281612dfb565b9050919050565b600060208201905081810360008301526132e281612e1e565b9050919050565b6000602082019050818103600083015261330281612e41565b9050919050565b6000602082019050818103600083015261332281612e64565b9050919050565b6000602082019050818103600083015261334281612e87565b9050919050565b6000602082019050818103600083015261336281612eaa565b9050919050565b6000602082019050818103600083015261338281612ecd565b9050919050565b600060208201905081810360008301526133a281612ef0565b9050919050565b600060208201905081810360008301526133c281612f13565b9050919050565b600060208201905081810360008301526133e281612f36565b9050919050565b6000602082019050818103600083015261340281612f59565b9050919050565b6000602082019050818103600083015261342281612f7c565b9050919050565b6000602082019050818103600083015261344281612f9f565b9050919050565b6000602082019050818103600083015261346281612fc2565b9050919050565b6000602082019050818103600083015261348281612fe5565b9050919050565b600060208201905081810360008301526134a281613008565b9050919050565b600060208201905081810360008301526134c28161302b565b9050919050565b600060208201905081810360008301526134e28161304e565b9050919050565b6000602082019050818103600083015261350281613071565b9050919050565b600060208201905061351e600083018461310b565b92915050565b600061352e61353f565b905061353a82826137dc565b919050565b6000604051905090565b600067ffffffffffffffff82111561356457613563613914565b5b61356d82613943565b9050602081019050919050565b600067ffffffffffffffff82111561359557613594613914565b5b61359e82613943565b9050602081019050919050565b6000819050602082019050919050565b600081519050919050565b600081519050919050565b600081519050919050565b6000602082019050919050565b600082825260208201905092915050565b600082825260208201905092915050565b600082825260208201905092915050565b600081905092915050565b60006136328261375e565b915061363d8361375e565b9250827fffffffffffffffffffffffffffffffffffffffffffffffffffffffffffffffff0382111561367257613671613887565b5b828201905092915050565b60006136888261375e565b91506136938361375e565b9250826136a3576136a26138b6565b5b828204905092915050565b60006136b98261375e565b91506136c48361375e565b9250828210156136d7576136d6613887565b5b828203905092915050565b60006136ed8261373e565b9050919050565b60006136ff8261373e565b9050919050565b60008115159050919050565b60007fffffffff0000000000000000000000000000000000000000000000000000000082169050919050565b600073ffffffffffffffffffffffffffffffffffffffff82169050919050565b6000819050919050565b82818337600083830152505050565b60005b8381101561379557808201518184015260208101905061377a565b838111156137a4576000848401525b50505050565b600060028204905060018216806137c257607f821691505b602082108114156137d6576137d56138e5565b5b50919050565b6137e582613943565b810181811067ffffffffffffffff8211171561380457613803613914565b5b80604052505050565b60006138188261375e565b91507fffffffffffffffffffffffffffffffffffffffffffffffffffffffffffffffff82141561384b5761384a613887565b5b600182019050919050565b60006138618261375e565b915061386c8361375e565b92508261387c5761387b6138b6565b5b828206905092915050565b7f4e487b7100000000000000000000000000000000000000000000000000000000600052601160045260246000fd5b7f4e487b7100000000000000000000000000000000000000000000000000000000600052601260045260246000fd5b7f4e487b7100000000000000000000000000000000000000000000000000000000600052602260045260246000fd5b7f4e487b7100000000000000000000000000000000000000000000000000000000600052604160045260246000fd5b6000601f19601f8301169050919050565b7f436f756e7465723a2064656372656d656e74206f766572666c6f770000000000600082015250565b7f4552433732313a207472616e7366657220746f206e6f6e20455243373231526560008201527f63656976657220696d706c656d656e7465720000000000000000000000000000602082015250565b7f4552433732313a207472616e736665722066726f6d20696e636f72726563742060008201527f6f776e6572000000000000000000000000000000000000000000000000000000602082015250565b7f4552433732313a20746f6b656e20616c7265616479206d696e74656400000000600082015250565b7f4552433732313a207472616e7366657220746f20746865207a65726f2061646460008201527f7265737300000000000000000000000000000000000000000000000000000000602082015250565b7f4552433732313a20617070726f766520746f2063616c6c657200000000000000600082015250565b7f4552433732313a206f70657261746f7220717565727920666f72206e6f6e657860008201527f697374656e7420746f6b656e0000000000000000000000000000000000000000602082015250565b7f4552433732313a20617070726f76652063616c6c6572206973206e6f74206f7760008201527f6e6572206e6f7220617070726f76656420666f7220616c6c0000000000000000602082015250565b7f4552433732313a2062616c616e636520717565727920666f7220746865207a6560008201527f726f206164647265737300000000000000000000000000000000000000000000602082015250565b7f4552433732313a206f776e657220717565727920666f72206e6f6e657869737460008201527f656e7420746f6b656e0000000000000000000000000000000000000000000000602082015250565b7f45524337323155524953746f726167653a2055524920736574206f66206e6f6e60008201527f6578697374656e7420746f6b656e000000000000000000000000000000000000602082015250565b7f506c65617365207375626d6974207468652061736b696e67207072696365206960008201527f6e206f7264657220746f20636f6d706c65746520746865207075726368617365602082015250565b7f4552433732313a206d696e7420746f20746865207a65726f2061646472657373600082015250565b7f45524337323155524953746f726167653a2055524920717565727920666f722060008201527f6e6f6e6578697374656e7420746f6b656e000000000000000000000000000000602082015250565b7f4f6e6c79206974656d206f776e65722063616e20706572666f726d207468697360008201527f206f7065726174696f6e00000000000000000000000000000000000000000000602082015250565b7f4552433732313a20617070726f76656420717565727920666f72206e6f6e657860008201527f697374656e7420746f6b656e0000000000000000000000000000000000000000602082015250565b7f4552433732314d657461646174613a2055524920717565727920666f72206e6f60008201527f6e6578697374656e7420746f6b656e0000000000000000000000000000000000602082015250565b7f4552433732313a20617070726f76616c20746f2063757272656e74206f776e6560008201527f7200000000000000000000000000000000000000000000000000000000000000602082015250565b7f5072696365206d75737420626520657175616c20746f206c697374696e67207060008201527f7269636500000000000000000000000000000000000000000000000000000000602082015250565b7f4552433732313a207472616e736665722063616c6c6572206973206e6f74206f60008201527f776e6572206e6f7220617070726f766564000000000000000000000000000000602082015250565b7f4f6e6c79206d61726b6574706c616365206f776e65722063616e20757064617460008201527f65206c697374696e672070726963652e00000000000000000000000000000000602082015250565b7f5072696365206d757374206265206174206c6561737420312077656900000000600082015250565b613f69816136e2565b8114613f7457600080fd5b50565b613f8081613706565b8114613f8b57600080fd5b50565b613f9781613712565b8114613fa257600080fd5b50565b613fae8161375e565b8114613fb957600080fd5b5056fea2646970667358221220812720c6c4014dcd046c0aa730fcdde658673d3aa9c4b116f3dca3f0dbce7b7b64736f6c63430008040033",
  "linkReferences": {},
  "deployedLinkReferences": {}
}