{
  "_format": "hh-sol-artifact-1",
  "contractName": "NFTMarketplace",
  "sourceName": "src/backend/contracts/NFTMarketplace.sol",
  "abi": [
    {
      "inputs": [],
      "stateMutability": "nonpayable",
      "type": "constructor"
    },
    {
      "anonymous": false,
      "inputs": [
        {
          "indexed": true,
          "internalType": "address",
          "name": "owner",
          "type": "address"
        },
        {
          "indexed": true,
          "internalType": "address",
          "name": "approved",
          "type": "address"
        },
        {
          "indexed": true,
          "internalType": "uint256",
          "name": "tokenId",
          "type": "uint256"
        }
      ],
      "name": "Approval",
      "type": "event"
    },
    {
      "anonymous": false,
      "inputs": [
        {
          "indexed": true,
          "internalType": "address",
          "name": "owner",
          "type": "address"
        },
        {
          "indexed": true,
          "internalType": "address",
          "name": "operator",
          "type": "address"
        },
        {
          "indexed": false,
          "internalType": "bool",
          "name": "approved",
          "type": "bool"
        }
      ],
      "name": "ApprovalForAll",
      "type": "event"
    },
    {
      "anonymous": false,
      "inputs": [
        {
          "indexed": true,
          "internalType": "uint256",
          "name": "tokenId",
          "type": "uint256"
        },
        {
          "indexed": false,
          "internalType": "address",
          "name": "seller",
          "type": "address"
        },
        {
          "indexed": false,
          "internalType": "address",
          "name": "owner",
          "type": "address"
        },
        {
          "indexed": false,
          "internalType": "uint256",
          "name": "price",
          "type": "uint256"
        },
        {
          "indexed": false,
          "internalType": "uint256",
          "name": "duration",
          "type": "uint256"
        },
        {
          "indexed": false,
          "internalType": "uint256",
          "name": "maxBid",
          "type": "uint256"
        },
        {
          "indexed": false,
          "internalType": "address",
          "name": "maxBidUser",
          "type": "address"
        },
        {
          "indexed": false,
          "internalType": "bool",
          "name": "isActive",
          "type": "bool"
        },
        {
          "indexed": false,
          "internalType": "uint256",
          "name": "bidprice",
          "type": "uint256"
        },
        {
          "indexed": false,
          "internalType": "uint256[]",
          "name": "bidAmounts",
          "type": "uint256[]"
        },
        {
          "indexed": false,
          "internalType": "address[]",
          "name": "users",
          "type": "address[]"
        },
        {
          "indexed": false,
          "internalType": "bool",
          "name": "sold",
          "type": "bool"
        }
      ],
      "name": "MarketItemCreated",
      "type": "event"
    },
    {
      "anonymous": false,
      "inputs": [
        {
          "indexed": false,
          "internalType": "address",
          "name": "seller",
          "type": "address"
        },
        {
          "indexed": false,
          "internalType": "address",
          "name": "owner",
          "type": "address"
        },
        {
          "indexed": false,
          "internalType": "address",
          "name": "maxBidUser",
          "type": "address"
        }
      ],
      "name": "MarketItemsold",
      "type": "event"
    },
    {
      "anonymous": false,
      "inputs": [
        {
          "indexed": true,
          "internalType": "address",
          "name": "from",
          "type": "address"
        },
        {
          "indexed": true,
          "internalType": "address",
          "name": "to",
          "type": "address"
        },
        {
          "indexed": true,
          "internalType": "uint256",
          "name": "tokenId",
          "type": "uint256"
        }
      ],
      "name": "Transfer",
      "type": "event"
    },
    {
      "inputs": [
        {
          "internalType": "address",
          "name": "to",
          "type": "address"
        },
        {
          "internalType": "uint256",
          "name": "tokenId",
          "type": "uint256"
        }
      ],
      "name": "approve",
      "outputs": [],
      "stateMutability": "nonpayable",
      "type": "function"
    },
    {
      "inputs": [
        {
          "internalType": "address",
          "name": "owner",
          "type": "address"
        }
      ],
      "name": "balanceOf",
      "outputs": [
        {
          "internalType": "uint256",
          "name": "",
          "type": "uint256"
        }
      ],
      "stateMutability": "view",
      "type": "function"
    },
    {
      "inputs": [
        {
          "internalType": "uint256",
          "name": "_tokenId",
          "type": "uint256"
        }
      ],
      "name": "bid",
      "outputs": [],
      "stateMutability": "payable",
      "type": "function"
    },
    {
      "inputs": [
        {
          "internalType": "uint256",
          "name": "",
          "type": "uint256"
        },
        {
          "internalType": "address",
          "name": "",
          "type": "address"
        }
      ],
      "name": "bids",
      "outputs": [
        {
          "internalType": "uint256",
          "name": "",
          "type": "uint256"
        }
      ],
      "stateMutability": "view",
      "type": "function"
    },
    {
      "inputs": [
        {
          "internalType": "uint256",
          "name": "_tokenId",
          "type": "uint256"
        }
      ],
      "name": "cancelAuction",
      "outputs": [],
      "stateMutability": "nonpayable",
      "type": "function"
    },
    {
      "inputs": [
        {
          "internalType": "string",
          "name": "tokenURI",
          "type": "string"
        },
        {
          "internalType": "uint256",
          "name": "price",
          "type": "uint256"
        },
        {
          "internalType": "uint256",
          "name": "duration",
          "type": "uint256"
        }
      ],
      "name": "createAuctionToken",
      "outputs": [
        {
          "internalType": "uint256",
          "name": "",
          "type": "uint256"
        }
      ],
      "stateMutability": "payable",
      "type": "function"
    },
    {
      "inputs": [
        {
          "internalType": "uint256",
          "name": "tokenId",
          "type": "uint256"
        }
      ],
      "name": "createMarketSale",
      "outputs": [],
      "stateMutability": "payable",
      "type": "function"
    },
    {
      "inputs": [
        {
          "internalType": "string",
          "name": "tokenURI",
          "type": "string"
        },
        {
          "internalType": "uint256",
          "name": "price",
          "type": "uint256"
        }
      ],
      "name": "createToken",
      "outputs": [
        {
          "internalType": "uint256",
          "name": "",
          "type": "uint256"
        }
      ],
      "stateMutability": "payable",
      "type": "function"
    },
    {
      "inputs": [
        {
          "internalType": "uint256",
          "name": "tokenId",
          "type": "uint256"
        }
      ],
      "name": "executeSale",
      "outputs": [],
      "stateMutability": "nonpayable",
      "type": "function"
    },
    {
      "inputs": [],
      "name": "fetchItemsListed",
      "outputs": [
        {
          "components": [
            {
              "internalType": "uint256",
              "name": "tokenId",
              "type": "uint256"
            },
            {
              "internalType": "address payable",
              "name": "seller",
              "type": "address"
            },
            {
              "internalType": "address payable",
              "name": "owner",
              "type": "address"
            },
            {
              "internalType": "uint256",
              "name": "price",
              "type": "uint256"
            },
            {
              "internalType": "uint256",
              "name": "duration",
              "type": "uint256"
            },
            {
              "internalType": "uint256",
              "name": "maxBid",
              "type": "uint256"
            },
            {
              "internalType": "address",
              "name": "maxBidUser",
              "type": "address"
            },
            {
              "internalType": "bool",
              "name": "isActive",
              "type": "bool"
            },
            {
              "internalType": "uint256",
              "name": "bidprice",
              "type": "uint256"
            },
            {
              "internalType": "uint256[]",
              "name": "bidAmounts",
              "type": "uint256[]"
            },
            {
              "internalType": "address[]",
              "name": "users",
              "type": "address[]"
            },
            {
              "internalType": "bool",
              "name": "sold",
              "type": "bool"
            }
          ],
          "internalType": "struct NFTMarketplace.MarketItem[]",
          "name": "",
          "type": "tuple[]"
        }
      ],
      "stateMutability": "view",
      "type": "function"
    },
    {
      "inputs": [],
      "name": "fetchMarketItems",
      "outputs": [
        {
          "components": [
            {
              "internalType": "uint256",
              "name": "tokenId",
              "type": "uint256"
            },
            {
              "internalType": "address payable",
              "name": "seller",
              "type": "address"
            },
            {
              "internalType": "address payable",
              "name": "owner",
              "type": "address"
            },
            {
              "internalType": "uint256",
              "name": "price",
              "type": "uint256"
            },
            {
              "internalType": "uint256",
              "name": "duration",
              "type": "uint256"
            },
            {
              "internalType": "uint256",
              "name": "maxBid",
              "type": "uint256"
            },
            {
              "internalType": "address",
              "name": "maxBidUser",
              "type": "address"
            },
            {
              "internalType": "bool",
              "name": "isActive",
              "type": "bool"
            },
            {
              "internalType": "uint256",
              "name": "bidprice",
              "type": "uint256"
            },
            {
              "internalType": "uint256[]",
              "name": "bidAmounts",
              "type": "uint256[]"
            },
            {
              "internalType": "address[]",
              "name": "users",
              "type": "address[]"
            },
            {
              "internalType": "bool",
              "name": "sold",
              "type": "bool"
            }
          ],
          "internalType": "struct NFTMarketplace.MarketItem[]",
          "name": "",
          "type": "tuple[]"
        }
      ],
      "stateMutability": "view",
      "type": "function"
    },
    {
      "inputs": [],
      "name": "fetchMyNFTs",
      "outputs": [
        {
          "components": [
            {
              "internalType": "uint256",
              "name": "tokenId",
              "type": "uint256"
            },
            {
              "internalType": "address payable",
              "name": "seller",
              "type": "address"
            },
            {
              "internalType": "address payable",
              "name": "owner",
              "type": "address"
            },
            {
              "internalType": "uint256",
              "name": "price",
              "type": "uint256"
            },
            {
              "internalType": "uint256",
              "name": "duration",
              "type": "uint256"
            },
            {
              "internalType": "uint256",
              "name": "maxBid",
              "type": "uint256"
            },
            {
              "internalType": "address",
              "name": "maxBidUser",
              "type": "address"
            },
            {
              "internalType": "bool",
              "name": "isActive",
              "type": "bool"
            },
            {
              "internalType": "uint256",
              "name": "bidprice",
              "type": "uint256"
            },
            {
              "internalType": "uint256[]",
              "name": "bidAmounts",
              "type": "uint256[]"
            },
            {
              "internalType": "address[]",
              "name": "users",
              "type": "address[]"
            },
            {
              "internalType": "bool",
              "name": "sold",
              "type": "bool"
            }
          ],
          "internalType": "struct NFTMarketplace.MarketItem[]",
          "name": "",
          "type": "tuple[]"
        }
      ],
      "stateMutability": "view",
      "type": "function"
    },
    {
      "inputs": [],
      "name": "fetchsoldItems",
      "outputs": [
        {
          "components": [
            {
              "internalType": "uint256",
              "name": "tokenId",
              "type": "uint256"
            },
            {
              "internalType": "address payable",
              "name": "seller",
              "type": "address"
            },
            {
              "internalType": "address payable",
              "name": "owner",
              "type": "address"
            },
            {
              "internalType": "uint256",
              "name": "price",
              "type": "uint256"
            },
            {
              "internalType": "uint256",
              "name": "duration",
              "type": "uint256"
            },
            {
              "internalType": "uint256",
              "name": "maxBid",
              "type": "uint256"
            },
            {
              "internalType": "address",
              "name": "maxBidUser",
              "type": "address"
            },
            {
              "internalType": "bool",
              "name": "isActive",
              "type": "bool"
            },
            {
              "internalType": "uint256",
              "name": "bidprice",
              "type": "uint256"
            },
            {
              "internalType": "uint256[]",
              "name": "bidAmounts",
              "type": "uint256[]"
            },
            {
              "internalType": "address[]",
              "name": "users",
              "type": "address[]"
            },
            {
              "internalType": "bool",
              "name": "sold",
              "type": "bool"
            }
          ],
          "internalType": "struct NFTMarketplace.MarketItem[]",
          "name": "",
          "type": "tuple[]"
        }
      ],
      "stateMutability": "view",
      "type": "function"
    },
    {
      "inputs": [
        {
          "internalType": "uint256",
          "name": "tokenId",
          "type": "uint256"
        }
      ],
      "name": "getApproved",
      "outputs": [
        {
          "internalType": "address",
          "name": "",
          "type": "address"
        }
      ],
      "stateMutability": "view",
      "type": "function"
    },
    {
      "inputs": [],
      "name": "getListingPrice",
      "outputs": [
        {
          "internalType": "uint256",
          "name": "",
          "type": "uint256"
        }
      ],
      "stateMutability": "view",
      "type": "function"
    },
    {
      "inputs": [
        {
          "internalType": "address",
          "name": "owner",
          "type": "address"
        },
        {
          "internalType": "address",
          "name": "operator",
          "type": "address"
        }
      ],
      "name": "isApprovedForAll",
      "outputs": [
        {
          "internalType": "bool",
          "name": "",
          "type": "bool"
        }
      ],
      "stateMutability": "view",
      "type": "function"
    },
    {
      "inputs": [],
      "name": "name",
      "outputs": [
        {
          "internalType": "string",
          "name": "",
          "type": "string"
        }
      ],
      "stateMutability": "view",
      "type": "function"
    },
    {
      "inputs": [
        {
          "internalType": "uint256",
          "name": "tokenId",
          "type": "uint256"
        }
      ],
      "name": "ownerOf",
      "outputs": [
        {
          "internalType": "address",
          "name": "",
          "type": "address"
        }
      ],
      "stateMutability": "view",
      "type": "function"
    },
    {
      "inputs": [
        {
          "internalType": "uint256",
          "name": "tokenId",
          "type": "uint256"
        },
        {
          "internalType": "uint256",
          "name": "price",
          "type": "uint256"
        }
      ],
      "name": "resellToken",
      "outputs": [],
      "stateMutability": "payable",
      "type": "function"
    },
    {
      "inputs": [
        {
          "internalType": "address",
          "name": "from",
          "type": "address"
        },
        {
          "internalType": "address",
          "name": "to",
          "type": "address"
        },
        {
          "internalType": "uint256",
          "name": "tokenId",
          "type": "uint256"
        }
      ],
      "name": "safeTransferFrom",
      "outputs": [],
      "stateMutability": "nonpayable",
      "type": "function"
    },
    {
      "inputs": [
        {
          "internalType": "address",
          "name": "from",
          "type": "address"
        },
        {
          "internalType": "address",
          "name": "to",
          "type": "address"
        },
        {
          "internalType": "uint256",
          "name": "tokenId",
          "type": "uint256"
        },
        {
          "internalType": "bytes",
          "name": "data",
          "type": "bytes"
        }
      ],
      "name": "safeTransferFrom",
      "outputs": [],
      "stateMutability": "nonpayable",
      "type": "function"
    },
    {
      "inputs": [
        {
          "internalType": "address",
          "name": "operator",
          "type": "address"
        },
        {
          "internalType": "bool",
          "name": "approved",
          "type": "bool"
        }
      ],
      "name": "setApprovalForAll",
      "outputs": [],
      "stateMutability": "nonpayable",
      "type": "function"
    },
    {
      "inputs": [
        {
          "internalType": "bytes4",
          "name": "interfaceId",
          "type": "bytes4"
        }
      ],
      "name": "supportsInterface",
      "outputs": [
        {
          "internalType": "bool",
          "name": "",
          "type": "bool"
        }
      ],
      "stateMutability": "view",
      "type": "function"
    },
    {
      "inputs": [],
      "name": "symbol",
      "outputs": [
        {
          "internalType": "string",
          "name": "",
          "type": "string"
        }
      ],
      "stateMutability": "view",
      "type": "function"
    },
    {
      "inputs": [
        {
          "internalType": "uint256",
          "name": "tokenId",
          "type": "uint256"
        }
      ],
      "name": "tokenURI",
      "outputs": [
        {
          "internalType": "string",
          "name": "",
          "type": "string"
        }
      ],
      "stateMutability": "view",
      "type": "function"
    },
    {
      "inputs": [
        {
          "internalType": "address",
          "name": "from",
          "type": "address"
        },
        {
          "internalType": "address",
          "name": "to",
          "type": "address"
        },
        {
          "internalType": "uint256",
          "name": "tokenId",
          "type": "uint256"
        }
      ],
      "name": "transferFrom",
      "outputs": [],
      "stateMutability": "nonpayable",
      "type": "function"
    },
    {
      "inputs": [
        {
          "internalType": "uint256",
          "name": "_listingPrice",
          "type": "uint256"
        }
      ],
      "name": "updateListingPrice",
      "outputs": [],
      "stateMutability": "payable",
      "type": "function"
    }
  ],
  "bytecode": "0x608060405264174876e8006009553480156200001a57600080fd5b50604080518082018252600a81526944505020546f6b656e7360b01b60208083019182528351808501909452600384526204450560ec1b908401528151919291620000689160009162000099565b5080516200007e90600190602084019062000099565b5050600a80546001600160a01b03191633179055506200017c565b828054620000a7906200013f565b90600052602060002090601f016020900481019282620000cb576000855562000116565b82601f10620000e657805160ff191683800117855562000116565b8280016001018555821562000116579182015b8281111562000116578251825591602001919060010190620000f9565b506200012492915062000128565b5090565b5b8082111562000124576000815560010162000129565b600181811c908216806200015457607f821691505b602082108114156200017657634e487b7160e01b600052602260045260246000fd5b50919050565b613542806200018c6000396000f3fe60806040526004361061019c5760003560e01c806345f8fa80116100ec578063a22cb4651161008a578063be9af53611610064578063be9af5361461046f578063c87b56dd14610482578063e219fc75146104a2578063e985e9c5146104b557600080fd5b8063a22cb4651461041c578063ae677aa31461043c578063b88d4fde1461044f57600080fd5b806372b3b620116100c657806372b3b620146103b457806395d89b41146103c757806396b5a755146103dc5780639b1225c4146103fc57600080fd5b806345f8fa801461035f5780636352211e1461037457806370a082311461039457600080fd5b806312e8558511610159578063318c58b711610133578063318c58b7146102df5780633f1ffcec146102f457806342842e0e1461032c578063454a2ab31461034c57600080fd5b806312e8558514610295578063202e3740146102aa57806323b872dd146102bf57600080fd5b806301ffc9a7146101a157806306fdde03146101d6578063081812fc146101f8578063095ea7b3146102305780630f08efe014610252578063117ec03a14610274575b600080fd5b3480156101ad57600080fd5b506101c16101bc366004612f64565b6104fe565b60405190151581526020015b60405180910390f35b3480156101e257600080fd5b506101eb610550565b6040516101cd9190613328565b34801561020457600080fd5b5061021861021336600461302b565b6105e2565b6040516001600160a01b0390911681526020016101cd565b34801561023c57600080fd5b5061025061024b366004612f3b565b610609565b005b34801561025e57600080fd5b50610267610724565b6040516101cd9190613216565b610287610282366004612fdf565b6109ad565b6040519081526020016101cd565b3480156102a157600080fd5b50600954610287565b3480156102b657600080fd5b506102676109f1565b3480156102cb57600080fd5b506102506102da366004612e4d565b610d2d565b3480156102eb57600080fd5b50610267610d5e565b34801561030057600080fd5b5061028761030f366004613043565b600c60209081526000928352604080842090915290825290205481565b34801561033857600080fd5b50610250610347366004612e4d565b610fd1565b61025061035a36600461302b565b610fec565b34801561036b57600080fd5b506102676111c0565b34801561038057600080fd5b5061021861038f36600461302b565b611487565b3480156103a057600080fd5b506102876103af366004612e01565b6114e7565b6102876103c2366004612f9c565b61156d565b3480156103d357600080fd5b506101eb6115af565b3480156103e857600080fd5b506102506103f736600461302b565b6115be565b34801561040857600080fd5b5061025061041736600461302b565b611798565b34801561042857600080fd5b50610250610437366004612f01565b611a4f565b61025061044a36600461302b565b611a5e565b34801561045b57600080fd5b5061025061046a366004612e88565b611ad6565b61025061047d36600461302b565b611b0e565b34801561048e57600080fd5b506101eb61049d36600461302b565b611ba0565b6102506104b0366004613065565b611ca9565b3480156104c157600080fd5b506101c16104d0366004612e1b565b6001600160a01b03918216600090815260056020908152604080832093909416825291909152205460ff1690565b60006001600160e01b031982166380ac58cd60e01b148061052f57506001600160e01b03198216635b5e139f60e01b145b8061054a57506301ffc9a760e01b6001600160e01b03198316145b92915050565b60606000805461055f9061344a565b80601f016020809104026020016040519081016040528092919081815260200182805461058b9061344a565b80156105d85780601f106105ad576101008083540402835291602001916105d8565b820191906000526020600020905b8154815290600101906020018083116105bb57829003601f168201915b5050505050905090565b60006105ed82611ddd565b506000908152600460205260409020546001600160a01b031690565b600061061482611487565b9050806001600160a01b0316836001600160a01b031614156106875760405162461bcd60e51b815260206004820152602160248201527f4552433732313a20617070726f76616c20746f2063757272656e74206f776e656044820152603960f91b60648201526084015b60405180910390fd5b336001600160a01b03821614806106a357506106a381336104d0565b6107155760405162461bcd60e51b815260206004820152603e60248201527f4552433732313a20617070726f76652063616c6c6572206973206e6f7420746f60448201527f6b656e206f776e6572206e6f7220617070726f76656420666f7220616c6c0000606482015260840161067e565b61071f8383611e3f565b505050565b6060600061073160075490565b9050600061073e60085490565b60075461074b9190613407565b90506000808267ffffffffffffffff81111561077757634e487b7160e01b600052604160045260246000fd5b6040519080825280602002602001820160405280156107b057816020015b61079d612ba8565b8152602001906001900390816107955790505b50905060005b848110156109a45730600b60006107ce8460016133db565b81526020810191909152604001600020600201546001600160a01b031614156109925760006107fe8260016133db565b6000818152600b60209081526040918290208251610180810184528154815260018201546001600160a01b039081168285015260028301548116828601526003830154606083015260048301546080830152600583015460a0830152600683015490811660c0830152600160a01b900460ff16151560e082015260078201546101008201526008820180548551818602810186019096528086529596509194909385936101208601939192908301828280156108d957602002820191906000526020600020905b8154815260200190600101908083116108c5575b505050505081526020016009820180548060200260200160405190810160405280929190818152602001828054801561093b57602002820191906000526020600020905b81546001600160a01b0316815260019091019060200180831161091d575b5050509183525050600a919091015460ff161515602090910152845185908790811061097757634e487b7160e01b600052603260045260246000fd5b602090810291909101015261098d6001866133db565b945050505b8061099c81613485565b9150506107b6565b50949350505050565b60006109bd600780546001019055565b60006109c860075490565b90506109d43382611ead565b6109de8186611fef565b6109e9818585612089565b949350505050565b60606000806109ff60075490565b905060008060005b83811015610a975733600b6000610a1f8460016133db565b81526020810191909152604001600020600201546001600160a01b03161480610a72575033600b6000610a538460016133db565b81526020810191909152604001600020600601546001600160a01b0316145b15610a8557610a826001846133db565b92505b80610a8f81613485565b915050610a07565b5060008267ffffffffffffffff811115610ac157634e487b7160e01b600052604160045260246000fd5b604051908082528060200260200182016040528015610afa57816020015b610ae7612ba8565b815260200190600190039081610adf5790505b50905060005b84811015610d235733600b6000610b188460016133db565b81526020810191909152604001600020600201546001600160a01b03161480610b6b575033600b6000610b4c8460016133db565b81526020810191909152604001600020600601546001600160a01b0316145b15610d11576000610b7d8260016133db565b6000818152600b60209081526040918290208251610180810184528154815260018201546001600160a01b039081168285015260028301548116828601526003830154606083015260048301546080830152600583015460a0830152600683015490811660c0830152600160a01b900460ff16151560e08201526007820154610100820152600882018054855181860281018601909652808652959650919490938593610120860193919290830182828015610c5857602002820191906000526020600020905b815481526020019060010190808311610c44575b5050505050815260200160098201805480602002602001604051908101604052809291908181526020018280548015610cba57602002820191906000526020600020905b81546001600160a01b03168152600190910190602001808311610c9c575b5050509183525050600a919091015460ff1615156020909101528451859087908110610cf657634e487b7160e01b600052603260045260246000fd5b6020908102919091010152610d0c6001866133db565b945050505b80610d1b81613485565b915050610b00565b5095945050505050565b610d37338261236b565b610d535760405162461bcd60e51b815260040161067e9061338d565b61071f8383836123e9565b60606000610d6b60075490565b90506000610d7860085490565b90506000808267ffffffffffffffff811115610da457634e487b7160e01b600052604160045260246000fd5b604051908082528060200260200182016040528015610ddd57816020015b610dca612ba8565b815260200190600190039081610dc25790505b50905060005b848110156109a45733600b6000610dfb8460016133db565b81526020810191909152604001600020600101546001600160a01b03161415610fbf576000610e2b8260016133db565b6000818152600b60209081526040918290208251610180810184528154815260018201546001600160a01b039081168285015260028301548116828601526003830154606083015260048301546080830152600583015460a0830152600683015490811660c0830152600160a01b900460ff16151560e08201526007820154610100820152600882018054855181860281018601909652808652959650919490938593610120860193919290830182828015610f0657602002820191906000526020600020905b815481526020019060010190808311610ef2575b5050505050815260200160098201805480602002602001604051908101604052809291908181526020018280548015610f6857602002820191906000526020600020905b81546001600160a01b03168152600190910190602001808311610f4a575b5050509183525050600a919091015460ff1615156020909101528451859087908110610fa457634e487b7160e01b600052603260045260246000fd5b6020908102919091010152610fba6001866133db565b945050505b80610fc981613485565b915050610de3565b61071f83838360405180602001604052806000815250611ad6565b6000818152600b60209081526040808320600c8352818420338552909252909120541561107d576000828152600c602090815260408083203380855292528083205490518381818185875af1925050503d8060008114611068576040519150601f19603f3d011682016040523d82523d6000602084013e61106d565b606091505b505090508061107b57600080fd5b505b6000828152600c60209081526040808320338452909152902034905560088101546110c1573460058201556006810180546001600160a01b0319163317905561117f565b60088101546000906110d590600190613407565b9050348260080182815481106110fb57634e487b7160e01b600052603260045260246000fd5b9060005260206000200154106111635760405162461bcd60e51b815260206004820152602760248201527f43757272656e74206d61782062696420697320686967686572207468616e20796044820152661bdd5c88189a5960ca1b606482015260840161067e565b503460058201556006810180546001600160a01b031916331790555b600981018054600181810183556000928352602080842090920180546001600160a01b03191633179055600890930180549384018155825290203491015550565b606060006111cd60075490565b905060008060005b838110156112305733600b60006111ed8460016133db565b81526020810191909152604001600020600101546001600160a01b0316141561121e5761121b6001846133db565b92505b8061122881613485565b9150506111d5565b5060008267ffffffffffffffff81111561125a57634e487b7160e01b600052604160045260246000fd5b60405190808252806020026020018201604052801561129357816020015b611280612ba8565b8152602001906001900390816112785790505b50905060005b848110156109a45733600b60006112b18460016133db565b81526020810191909152604001600020600101546001600160a01b031614156114755760006112e18260016133db565b6000818152600b60209081526040918290208251610180810184528154815260018201546001600160a01b039081168285015260028301548116828601526003830154606083015260048301546080830152600583015460a0830152600683015490811660c0830152600160a01b900460ff16151560e082015260078201546101008201526008820180548551818602810186019096528086529596509194909385936101208601939192908301828280156113bc57602002820191906000526020600020905b8154815260200190600101908083116113a8575b505050505081526020016009820180548060200260200160405190810160405280929190818152602001828054801561141e57602002820191906000526020600020905b81546001600160a01b03168152600190910190602001808311611400575b5050509183525050600a919091015460ff161515602090910152845185908790811061145a57634e487b7160e01b600052603260045260246000fd5b60209081029190910101526114706001866133db565b945050505b8061147f81613485565b915050611299565b6000818152600260205260408120546001600160a01b03168061054a5760405162461bcd60e51b8152602060048201526018602482015277115490cdcc8c4e881a5b9d985b1a59081d1bdad95b88125160421b604482015260640161067e565b60006001600160a01b0382166115515760405162461bcd60e51b815260206004820152602960248201527f4552433732313a2061646472657373207a65726f206973206e6f7420612076616044820152683634b21037bbb732b960b91b606482015260840161067e565b506001600160a01b031660009081526003602052604090205490565b600061157d600780546001019055565b600061158860075490565b90506115943382611ead565b61159e8185611fef565b6115a88184612585565b9392505050565b60606001805461055f9061344a565b6000818152600b6020526040902060018101546001600160a01b031633146116155760405162461bcd60e51b815260206004820152600a6024820152692737ba1039b2b63632b960b11b604482015260640161067e565b6006810154600160a01b900460ff166116655760405162461bcd60e51b815260206004820152601260248201527161756374696f6e206e6f742061637469766560701b604482015260640161067e565b60068101805460ff60a01b191690556000805b600983015481101561177d578260090181815481106116a757634e487b7160e01b600052603260045260246000fd5b6000918252602080832090910154868352600c909152604082206009860180546001600160a01b03909316939192859081106116f357634e487b7160e01b600052603260045260246000fd5b6000918252602080832091909101546001600160a01b0316835282019290925260409081018220549051909181818185875af1925050503d8060008114611756576040519150601f19603f3d011682016040523d82523d6000602084013e61175b565b606091505b5050809250508161176b57600080fd5b8061177581613485565b915050611678565b50600182015461071f9030906001600160a01b0316856123e9565b6000818152600b6020526040812060068101805460ff60a01b1916905560088101549091906117db57600182015461071f9030906001600160a01b0316856123e9565b600182015460058301546040516000926001600160a01b031691908381818185875af1925050503d806000811461182e576040519150601f19603f3d011682016040523d82523d6000602084013e611833565b606091505b505090508061184157600080fd5b60005b60098401548110156119985760068401546009850180546001600160a01b03909216918390811061188557634e487b7160e01b600052603260045260246000fd5b6000918252602090912001546001600160a01b031614611986578360090181815481106118c257634e487b7160e01b600052603260045260246000fd5b6000918252602080832090910154878352600c909152604082206009870180546001600160a01b039093169391928590811061190e57634e487b7160e01b600052603260045260246000fd5b6000918252602080832091909101546001600160a01b0316835282019290925260409081018220549051909181818185875af1925050503d8060008114611971576040519150601f19603f3d011682016040523d82523d6000602084013e611976565b606091505b5050809250508161198657600080fd5b8061199081613485565b915050611844565b506002830180546001600160a01b0384166001600160a01b031991821617909155600a8401805460ff191660019081179091558401805490911690556119e2600880546001019055565b60068301546119fc9030906001600160a01b0316866123e9565b6006830154604080513381526001600160a01b039092166020830181905282820152517f0e4d6b03fbef2f954ce477bee8f8e654fbf72c602c4d5865b33a67a05c0f5c0b9181900360600190a150505050565b611a5a3383836127b5565b5050565b600a546001600160a01b03163314611ad15760405162461bcd60e51b815260206004820152603060248201527f4f6e6c79206d61726b6574706c616365206f776e65722063616e20757064617460448201526f32903634b9ba34b73390383934b1b29760811b606482015260840161067e565b600955565b611ae0338361236b565b611afc5760405162461bcd60e51b815260040161067e9061338d565b611b0884848484612884565b50505050565b6000818152600b6020526040902060018082018054600284018054336001600160a01b031991821617909155600a909401805460ff19168417905592831690556008805490910190556001600160a01b0316611b6b3033846123e9565b6040516001600160a01b038216903480156108fc02916000818181858888f1935050505015801561071f573d6000803e3d6000fd5b6060611bab82611ddd565b60008281526006602052604081208054611bc49061344a565b80601f0160208091040260200160405190810160405280929190818152602001828054611bf09061344a565b8015611c3d5780601f10611c1257610100808354040283529160200191611c3d565b820191906000526020600020905b815481529060010190602001808311611c2057829003601f168201915b505050505090506000611c5b60408051602081019091526000815290565b9050805160001415611c6e575092915050565b815115611ca0578082604051602001611c88929190613124565b60405160208183030381529060405292505050919050565b6109e9846128b7565b6000828152600b60205260409020600201546001600160a01b03163314611d255760405162461bcd60e51b815260206004820152602a60248201527f4f6e6c79206974656d206f776e65722063616e20706572666f726d20746869736044820152691037b832b930ba34b7b760b11b606482015260840161067e565b6009543414611d825760405162461bcd60e51b8152602060048201526024808201527f5072696365206d75737420626520657175616c20746f206c697374696e6720706044820152637269636560e01b606482015260840161067e565b6000828152600b60205260409020600a8101805460ff19169055600381018290556001810180546001600160a01b031990811633179091556002909101805490911630179055611dd2600861292a565b611a5a3330846123e9565b6000818152600260205260409020546001600160a01b0316611e3c5760405162461bcd60e51b8152602060048201526018602482015277115490cdcc8c4e881a5b9d985b1a59081d1bdad95b88125160421b604482015260640161067e565b50565b600081815260046020526040902080546001600160a01b0319166001600160a01b0384169081179091558190611e7482611487565b6001600160a01b03167f8c5be1e5ebec7d5bd14f71427d1e84f3dd0314c0f7b2291e5b200ac8c7c3b92560405160405180910390a45050565b6001600160a01b038216611f035760405162461bcd60e51b815260206004820181905260248201527f4552433732313a206d696e7420746f20746865207a65726f2061646472657373604482015260640161067e565b6000818152600260205260409020546001600160a01b031615611f685760405162461bcd60e51b815260206004820152601c60248201527f4552433732313a20746f6b656e20616c7265616479206d696e74656400000000604482015260640161067e565b6001600160a01b0382166000908152600360205260408120805460019290611f919084906133db565b909155505060008181526002602052604080822080546001600160a01b0319166001600160a01b03861690811790915590518392907fddf252ad1be2c89b69c2b068fc378daa952ba7f163c4a11628f55a4df523b3ef908290a45050565b6000828152600260205260409020546001600160a01b031661206a5760405162461bcd60e51b815260206004820152602e60248201527f45524337323155524953746f726167653a2055524920736574206f66206e6f6e60448201526d32bc34b9ba32b73a103a37b5b2b760911b606482015260840161067e565b6000828152600660209081526040909120825161071f92840190612c28565b336120c85760405162461bcd60e51b815260206004820152600f60248201526e496e76616c6964204164647265737360881b604482015260640161067e565b600082116121185760405162461bcd60e51b815260206004820152601b60248201527f50726963652073686f756c64206265206d6f7265207468616e20300000000000604482015260640161067e565b600081116121615760405162461bcd60e51b8152602060048201526016602482015275496e76616c6964206475726174696f6e2076616c756560501b604482015260640161067e565b60408051610180810182528481523360208083019190915230828401526060820185905260808201849052600060a0830181905260c08301819052600160e0840152610100830181905283518181528083018552610120840152835181815291820190935290916101408301919050815260006020918201819052858152600b825260409081902083518155838301516001820180546001600160a01b039283166001600160a01b031991821617909155928501516002830180549183169190941617909255606084015160038201556080840151600482015560a0840151600582015560c084015160068201805460e08701511515600160a01b026001600160a81b031990911692909416919091179290921790915561010083015160078201556101208301518051919261229f92600885019290910190612cac565b5061014082015180516122bc916009840191602090910190612ce6565b506101609190910151600a909101805460ff19169115159190911790556122e43330856123e9565b827f990f0cde15f9f57458c79b8fba8b73c62bdacf5cc823d133135eddc8329ce37a333085856000806001818060405190808252806020026020018201604052801561233a578160200160208202803683370190505b50604080516000808252602082019283905261235e9b9a9998979695949392613190565b60405180910390a2505050565b60008061237783611487565b9050806001600160a01b0316846001600160a01b031614806123be57506001600160a01b0380821660009081526005602090815260408083209388168352929052205460ff165b806109e95750836001600160a01b03166123d7846105e2565b6001600160a01b031614949350505050565b826001600160a01b03166123fc82611487565b6001600160a01b0316146124605760405162461bcd60e51b815260206004820152602560248201527f4552433732313a207472616e736665722066726f6d20696e636f72726563742060448201526437bbb732b960d91b606482015260840161067e565b6001600160a01b0382166124c25760405162461bcd60e51b8152602060048201526024808201527f4552433732313a207472616e7366657220746f20746865207a65726f206164646044820152637265737360e01b606482015260840161067e565b6124cd600082611e3f565b6001600160a01b03831660009081526003602052604081208054600192906124f6908490613407565b90915550506001600160a01b03821660009081526003602052604081208054600192906125249084906133db565b909155505060008181526002602052604080822080546001600160a01b0319166001600160a01b0386811691821790925591518493918716917fddf252ad1be2c89b69c2b068fc378daa952ba7f163c4a11628f55a4df523b3ef91a4505050565b600081116125d55760405162461bcd60e51b815260206004820152601c60248201527f5072696365206d757374206265206174206c6561737420312077656900000000604482015260640161067e565b6040805161018081018252838152336020808301918252308385019081526060840186815260006080860181815260a0870182815260c08801838152600160e08a018181526101008b018681528c51878152808b018e526101208d019081528d51888152808c018f526101408e01526101608d018890528f8852600b8b529c9096208b5181559951918a0180546001600160a01b039384166001600160a01b031991821617909155975160028b018054918416919099161790975594516003890155915160048801555160058701555160068601805494511515600160a01b026001600160a81b0319909516919093161792909217905551600783015592518051929391926126ea9260088501920190612cac565b506101408201518051612707916009840191602090910190612ce6565b506101609190910151600a909101805460ff191691151591909117905561272f3330846123e9565b817f990f0cde15f9f57458c79b8fba8b73c62bdacf5cc823d133135eddc8329ce37a3330846000808060018180604051908082528060200260200182016040528015612785578160200160208202803683370190505b5060408051600080825260208201928390526127a99b9a9998979695949392613190565b60405180910390a25050565b816001600160a01b0316836001600160a01b031614156128175760405162461bcd60e51b815260206004820152601960248201527f4552433732313a20617070726f766520746f2063616c6c657200000000000000604482015260640161067e565b6001600160a01b03838116600081815260056020908152604080832094871680845294825291829020805460ff191686151590811790915591519182527f17307eab39ab6107e8899845ad3d59bd9653f200f220920489ca2b5937696c31910160405180910390a3505050565b61288f8484846123e9565b61289b84848484612981565b611b085760405162461bcd60e51b815260040161067e9061333b565b60606128c282611ddd565b60006128d960408051602081019091526000815290565b905060008151116128f957604051806020016040528060008152506115a8565b8061290384612a8e565b604051602001612914929190613124565b6040516020818303038152906040529392505050565b8054806129795760405162461bcd60e51b815260206004820152601b60248201527f436f756e7465723a2064656372656d656e74206f766572666c6f770000000000604482015260640161067e565b600019019055565b60006001600160a01b0384163b15612a8357604051630a85bd0160e11b81526001600160a01b0385169063150b7a02906129c5903390899088908890600401613153565b602060405180830381600087803b1580156129df57600080fd5b505af1925050508015612a0f575060408051601f3d908101601f19168201909252612a0c91810190612f80565b60015b612a69573d808015612a3d576040519150601f19603f3d011682016040523d82523d6000602084013e612a42565b606091505b508051612a615760405162461bcd60e51b815260040161067e9061333b565b805181602001fd5b6001600160e01b031916630a85bd0160e11b1490506109e9565b506001949350505050565b606081612ab25750506040805180820190915260018152600360fc1b602082015290565b8160005b8115612adc5780612ac681613485565b9150612ad59050600a836133f3565b9150612ab6565b60008167ffffffffffffffff811115612b0557634e487b7160e01b600052604160045260246000fd5b6040519080825280601f01601f191660200182016040528015612b2f576020820181803683370190505b5090505b84156109e957612b44600183613407565b9150612b51600a866134a0565b612b5c9060306133db565b60f81b818381518110612b7f57634e487b7160e01b600052603260045260246000fd5b60200101906001600160f81b031916908160001a905350612ba1600a866133f3565b9450612b33565b6040518061018001604052806000815260200160006001600160a01b0316815260200160006001600160a01b0316815260200160008152602001600081526020016000815260200160006001600160a01b031681526020016000151581526020016000815260200160608152602001606081526020016000151581525090565b828054612c349061344a565b90600052602060002090601f016020900481019282612c565760008555612c9c565b82601f10612c6f57805160ff1916838001178555612c9c565b82800160010185558215612c9c579182015b82811115612c9c578251825591602001919060010190612c81565b50612ca8929150612d3b565b5090565b828054828255906000526020600020908101928215612c9c5791602002820182811115612c9c578251825591602001919060010190612c81565b828054828255906000526020600020908101928215612c9c579160200282015b82811115612c9c57825182546001600160a01b0319166001600160a01b03909116178255602090920191600190910190612d06565b5b80821115612ca85760008155600101612d3c565b600067ffffffffffffffff80841115612d6b57612d6b6134e0565b604051601f8501601f19908116603f01168101908282118183101715612d9357612d936134e0565b81604052809350858152868686011115612dac57600080fd5b858560208301376000602087830101525050509392505050565b80356001600160a01b0381168114612ddd57600080fd5b919050565b600082601f830112612df2578081fd5b6115a883833560208501612d50565b600060208284031215612e12578081fd5b6115a882612dc6565b60008060408385031215612e2d578081fd5b612e3683612dc6565b9150612e4460208401612dc6565b90509250929050565b600080600060608486031215612e61578081fd5b612e6a84612dc6565b9250612e7860208501612dc6565b9150604084013590509250925092565b60008060008060808587031215612e9d578081fd5b612ea685612dc6565b9350612eb460208601612dc6565b925060408501359150606085013567ffffffffffffffff811115612ed6578182fd5b8501601f81018713612ee6578182fd5b612ef587823560208401612d50565b91505092959194509250565b60008060408385031215612f13578182fd5b612f1c83612dc6565b915060208301358015158114612f30578182fd5b809150509250929050565b60008060408385031215612f4d578182fd5b612f5683612dc6565b946020939093013593505050565b600060208284031215612f75578081fd5b81356115a8816134f6565b600060208284031215612f91578081fd5b81516115a8816134f6565b60008060408385031215612fae578182fd5b823567ffffffffffffffff811115612fc4578283fd5b612fd085828601612de2565b95602094909401359450505050565b600080600060608486031215612ff3578283fd5b833567ffffffffffffffff811115613009578384fd5b61301586828701612de2565b9660208601359650604090950135949350505050565b60006020828403121561303c578081fd5b5035919050565b60008060408385031215613055578182fd5b82359150612e4460208401612dc6565b60008060408385031215613077578182fd5b50508035926020909101359150565b6000815180845260208085019450808401835b838110156130be5781516001600160a01b031687529582019590820190600101613099565b509495945050505050565b6000815180845260208085019450808401835b838110156130be578151875295820195908201906001016130dc565b6000815180845261311081602086016020860161341e565b601f01601f19169290920160200192915050565b6000835161313681846020880161341e565b83519083019061314a81836020880161341e565b01949350505050565b6001600160a01b0385811682528416602082015260408101839052608060608201819052600090613186908301846130f8565b9695505050505050565b600061016060018060a01b03808f168452808e1660208501528c60408501528b60608501528a6080850152808a1660a08501525087151560c08401528660e0840152806101008401526131e5818401876130c9565b90508281036101208401526131fa8186613086565b9150508215156101408301529c9b505050505050505050505050565b60006020808301818452808551808352604092508286019150828160051b870101848801865b8381101561331a57603f19898403018552815180518452878101516001600160a01b039081168986015287820151811688860152606080830151908601526080808301519086015260a0808301519086015260c0808301519091169085015260e08082015115159085015261010080820151908501526101208082015161018082870181905291906132d0838801826130c9565b9250505061014080830151868303828801526132ec8382613086565b925050506101608083015192506133068187018415159052565b50958801959350509086019060010161323c565b509098975050505050505050565b6020815260006115a860208301846130f8565b60208082526032908201527f4552433732313a207472616e7366657220746f206e6f6e20455243373231526560408201527131b2b4bb32b91034b6b83632b6b2b73a32b960711b606082015260800190565b6020808252602e908201527f4552433732313a2063616c6c6572206973206e6f7420746f6b656e206f776e6560408201526d1c881b9bdc88185c1c1c9bdd995960921b606082015260800190565b600082198211156133ee576133ee6134b4565b500190565b600082613402576134026134ca565b500490565b600082821015613419576134196134b4565b500390565b60005b83811015613439578181015183820152602001613421565b83811115611b085750506000910152565b600181811c9082168061345e57607f821691505b6020821081141561347f57634e487b7160e01b600052602260045260246000fd5b50919050565b6000600019821415613499576134996134b4565b5060010190565b6000826134af576134af6134ca565b500690565b634e487b7160e01b600052601160045260246000fd5b634e487b7160e01b600052601260045260246000fd5b634e487b7160e01b600052604160045260246000fd5b6001600160e01b031981168114611e3c57600080fdfea2646970667358221220eac99a3e49ccef4c9b9bb254e76a453c33c57e6673a18df3208537bd8ed036cf64736f6c63430008040033",
  "linkReferences": {},
  "deployedLinkReferences": {}
}